:020000040003F7
:10C80000983D002081CA030093CA030095CA030023
:10C810000000000000000000000000000000000018
:10C8200000000000000000000000000097CA0300A4
:10C83000000000000000000099CA03009BCA03002A
:10C840009DCA03009DCA030069EB03009DCA030053
:10C850009DCA030000000000B9D603009DCA030072
:10C860009DCA03009DCA03009DCA03009DCA030020
:10C870009DCA03009DCA03009DCA03009DCA030010
:10C880009DCA030071D103009DCA03009DCA030025
:10C8900091D103009DCA0300D5D903009DCA0300AE
:10C8A0009DCA03009DCA03000000000000000000B4
:10C8B0000000000000000000000000000000000078
:10C8C00000F002F800F03FF80CA030C80838241837
:10C8D0002D18A246671EAB4654465D46AC4201D1B8
:10C8E00000F031F87E460F3E0FCCB64601263342AB
:10C8F00000D0FB1AA246AB4633431847B4290000C8
:10C90000D42900000023002400250026103A01D37A
:10C9100078C1FBD8520700D330C100D50B607047F7
:10C9200010B5642902D102F08BF910BD782902D12B
:10C9300002F0BCF910BD002010BD1FB5C046C046B6
:10C940001FBD10B510BD02F017FC1146FFF7F5FF33
:10C9500000F0C6F802F02FFC03B4FFF7F2FF03BCAF
:10C9600002F034FC026882F308884368184700002C
:10C97000401E00BF00BF00BF00BF00BF00BF00BF20
:10C9800000BF00BF00BF00BF00BFF1D17047000073
:10C99000401E00BF00BF00BF00BF00BF00BF00BF00
:10C9A00000BF00BF00BF00BF00BFF1D17047000053
:10C9B00070B505460C46164602E00FCC0FC5103E7A
:10C9C000102EFAD2082E02D303CC03C5083E042E43
:10C9D00007D301CC01C5361F03E021782970641C00
:10C9E0006D1C761EF9D270BD10B500F01DF8002840
:10C9F00005D01F491D484860C8131E4988611E485C
:10CA0000018CC9B201290ED1818C09070BD1018D8E
:10CA10000906090F042906D1808D0006000F02D1F6
:10CA200016490120886010BD1348018CC9B2012944
:10CA300017D1818C090714D1018D09060A0F03D182
:10CA4000828D1206120F0ED0090F012903D1828D9B
:10CA50001206120F07D0032903D1808D0006000FA4
:10CA600001D000207047012070470000DFFF07C0A1
:10CA700000050040006C0040C00F00F000060040C0
:10CA80000A4802680F210A430260094880470948A2
:10CA90000047FEE7FEE7FEE7FEE7FEE7FEE70000F1
:10CAA00005480649064A074B704700002405004028
:10CAB000E9C90300C1C8030098310020983D002057
:10CAC0009835002098350020002903D10120234902
:10CAD000C003886070470A4601462148F4E7704762
:10CAE000204B8AB00FCB049301AB07C300206946EB
:10CAF00088841D480590012006901C480790FF205F
:10CB00000130089009A800900323194A05A901A83B
:10CB100001F056FE002804D0FF2116A21031FFF7C5
:10CB2000D3FF00F0F2F90124640400F058F99128D1
:10CB300011D0922807D09328F7D100F053F920465E
:10CB400000F003F9F1E700F04DF900F045F9C0B24B
:10CB500000F0D7F9E9E700F045F9E6E700050050F5
:10CB6000EFBEADDE3CF20300042400205429002077
:10CB7000DFCA03002E2E5C6D61696E2E630000001B
:10CB800070B5044639200826C002844201D90C2021
:10CB900070BDA00701D0062070BD394D686801281E
:10CBA0000FD128462146143001F099F80600F3D140
:10CBB000AC60E860022068603A460120114600F04F
:10CBC0007CF8304670BD70B5002804D081688A07B3
:10CBD00003D0102070BD0E2070BD294C6268022A5F
:10CBE00005D0032A03D0042A03D0082070BD0422F4
:10CBF00062604068E3688500A2685819904201D9D4
:10CC00000C2070BD1E482A46143001F038F8002868
:10CC1000F7D1E1684919E16070BD10B5184C606842
:10CC2000042818D105206060A168E068884212D10C
:10CC300001200022400400F04DFE6080114922785E
:10CC40000988002A03D0884201D00B2010BD06209D
:10CC50006060002010BD082010BD0EB5084948686E
:10CC6000062801D008200EBD002000904A886B469F
:10CC70009A808A680292019900F01FF800200EBD88
:10CC800018240020542A002010B5044610214348DF
:10CC900000F0CEFF002803D041A28521FFF714FF4A
:10CCA0000023102221463D4800F083FF002803D0D6
:10CCB0003BA28B21FFF708FF10BD17B581B0684676
:10CCC00000F07EF8354C01993948241F002913D013
:10CCD00003291CD0FE22012923D002292CD00429AB
:10CCE00009D101F0F3F8002803D02DA2BE21FFF7EF
:10CCF000EBFE042020601FBD6946098981800399ED
:10CD0000C1600121FF2282600160216010E001F01A
:10CD1000DDF8002803D022A2A421FFF7D5FE0320CE
:10CD2000E8E7002181800260C16000998968816024
:10CD30001F48FFF7A9FF1FBD00990B6803608B8890
:10CD40008380C9688260C160F2E770B511DF002896
:10CD500004D0FF2112A20A31FFF7B6FE15490020C8
:10CD60000B68144C012180340A4682401A4204D0D8
:10CD7000C506ED0E0A46AA402260401CC0B220281B
:10CD8000F2D313DF002804D0FF2105A20F31FFF7F3
:10CD90009BFE0120400400F00FF870BD38240020F5
:10CDA0002E2E5C626F6F746C6F616465722E63000F
:10CDB000A02A002000E100E010B5FFF7D3FD10BD70
:10CDC000014901607047000000FC030010B5C0B2CB
:10CDD00001F092FC002010BD5148C06870475048D7
:10CDE000806870474E490020886070474C4A9129FE
:10CDF00006D0922906D0932908D0942908D109E0B9
:10CE0000912004E092219160D06001E09320906035
:10CE1000002070479420FAE7F0B501221207166946
:10CE2000404B02255D60404A1468002CFCD0002471
:10CE300005E098601768002FFCD08019641C8C42B4
:10CE4000F7D35868A843586010680028FCD0F0BD9C
:10CE500070B50023334D01246C60334C2668002EDE
:10CE6000FCD003E09E008E595B1C40C09342F9D376
:10CE70000020686020680028FCD070BD70B50120DB
:10CE800000070469E3208000214602F029F8421CD3
:10CE9000012526486D0405600368214624A001F0A1
:10CEA00099FE1F4801214561017070BD70B50546AE
:10CEB0000A20FFF75DFD1A4C012221462561103141
:10CEC0006069FFF7C5FF002020616069001D606197
:10CED00070BD16490868401C12D1124801224260F8
:10CEE0004A010A6010490A68002AFCD0002141600A
:10CEF000BFF34F8F1F491E48C860BFF34F8FFEE737
:10CF0000704701460948006886E710B5FFF7E1FF62
:10CF1000034901204870FFF7B1FF002010BD000059
:10CF20004424002000E5014000E40140001000100E
:10CF30000A0D20706167655F73697A65203D202561
:10CF4000642C206E6F5F6F665F7061676573203D54
:10CF50002025642C204E52465F554943522D3E43B6
:10CF60004C454E5230203D20307825780A0D000087
:10CF70000400FA0500ED00E0F0B5174F28217C68A9
:10CF800041430D19F9684A1C09D028224A43161951
:10CF9000AB68B268934204D8D21AB2606962F86092
:10CFA000F0BD0A4602E00A46796A9B1B4E1C0BD074
:10CFB00028264E433719BE689E42F4D328264E4396
:10CFC0003619B768FF1AB760AB60696228214A4317
:10CFD00011194862F0BD00005C240020F8B51E4C19
:10CFE000E568681C36D01D48002640682169401A53
:10CFF00007023F0A1AE02820454360682A18906813
:10D00000B84215D863693F1A8619556A002B0AD0B1
:10D01000116AD0699847002808D0FF2110A2553125
:10D02000FFF752FD02E0D169106A8847681CE2D11F
:10D03000A178E078814206D1401CC0B2E07002289D
:10D0400001D10020E07004490006800D18310E5017
:10D0500000F04EF9F8BD00005C24002000150140EE
:10D060002E2E5C2E2E5C2E2E5C2E2E5C2E2E5C53D5
:10D070006F757263655C6170705F636F6D6D6F6E0D
:10D080005C6170705F74696D65722E6300000000F2
:10D09000F8B504463448C1680091467856E03248F5
:10D0A000F10082688D184BE0601C07D02E4A2821C1
:10D0B00052686143204689184C6A20E0287818217C
:10D0C00041436A68401CC0B252182870A97888424F
:10D0D00001D100202870244B506828215B6841430F
:10D0E000C9181368012B2DD10B7E002B2AD1936810
:10D0F000CB60D3680B6113694B6152690A621A4AAB
:10D10000CF681369BC46FA1A1202184F120ABA42C3
:10D1100002D20B69D21809E062469A1A12020B6910
:10D12000120A934201D99A1A00E000228A60002272
:10D13000CA600A6101220A76921E4A62FFF71CFF4A
:10D14000601CB1D1287869788842ADD13046761E0E
:10D15000F6B20028A3D10448C1680098814201D0EA
:10D160000120F8BD0020F8BD5C240020FFFF7F00F7
:10D1700010B506490020086048608860C86003490F
:10D18000403908604860FFF729FF10BD4011014099
:10D19000F0B5002087B0C043029010480669C5680A
:10D1A000684600F0DFF8074600F0FCF80446002F60
:10D1B00008D002AA3146009800F03EF90298FFF725
:10D1C00067FF06E00298FFF763FF002801D1002CFB
:10D1D00002D0284600F05CF907B0F0BD5C240020C6
:10D1E0004F494868C005C00D17D0103807D5020751
:10D1F000120F083A920892005118C96904E0810898
:10D20000484A8900891809688007C00EC14008068D
:10D21000800F012803D0032803D00220704700208C
:10D22000704701207047FEB504463F4817464268E4
:10D230000D46002A0CD001788C4201D2052D01D276
:10D240000720FEBD2146282359435358012B01D006
:10D250000820FEBD8818406801281DD00026FFF771
:10D26000BFFFC0003049019089684018694600F04E
:10D2700044F8002812D00121446001602B4949681C
:10D280000830E2C028490198896841180098487020
:10D2900000F02EF80020FEBD2E46E0E70420FEBD83
:10D2A000F8B5214D04466868002809D029788C42D9
:10D2B00001D30720F8BD282161434058012801D03F
:10D2C0000820F8BDFFF78CFFC600A8686946301833
:10D2D00000F013F8002809D0022112C0A868311804
:10D2E0000098487000F004F80020F8BD0420F8BD54
:10D2F00001200F4900050860704742788378521C6E
:10D30000934200D100220378934201D1002070475C
:10D310000A6041684078182250430818704700009E
:10D3200000ED00E000E400E05C2400200015014076
:10D3300000E200E010B50121074A48041060074AE6
:10D3400040109060054A403A9060054841602F20A7
:10D35000FFF71EFB10BD000080E100E0401301401C
:10D360000010014010B50E4900238A78CC78A24203
:10D3700012D0521CD2B28A70022A00D18B708A78E5
:10D38000074B920018339A5802600869101800027F
:10D39000000A0861012010BD0360002010BD0000DC
:10D3A0005C240020F8B52348C1680091457833E03B
:10D3B0002048E90080680E1834782AE0182060437D
:10D3C0007168641C0818B178E4B2A14200D100244D
:10D3D0000168022902D003291BD113E0154A4068D5
:10D3E0002821526841438F18397E002911D000F05E
:10D3F0009DF8002038760CE028277843C018027684
:10D40000406A03E00B4900224B68C868471CF3D10F
:10D41000C8607078A042D1D128466D1EEDB20028B8
:10D42000C6D10448C1680098814201D00120F8BDEE
:10D430000020F8BD5C240020F7B5144C0025676877
:10D44000E3681EE028215943C9198E68864202D933
:10D45000301A886017E0801B751900268E600E76E2
:10D460004E699C464B6AB646002E0AD0019E76193C
:10D470003602360ACE6076460E6116684E62614606
:10D480001160591CDED1E360FEBD00005C24002069
:10D49000F8B52049CA68531C39D028235A434B6831
:10D4A000D21896681C4A54680F69401CE11B0D0293
:10D4B0002D0AED1C012100280FD1184A08045060E4
:10D4C000164A403A5060164A40001060154A1060F3
:10D4D000154801602F20FFF75BFAB54200D23546B0
:10D4E000E81900020C49000A403108600A494968FD
:10D4F000001B091B0902090A0002C91C000A81421B
:10D5000004D901200649400480390860F8BDFFF7BE
:10D5100011FFF8BD5C2400200015014040130140BC
:10D5200080E200E000E100E00010014070B5154D20
:10D53000EA686B681446114606E0814207D00A4645
:10D5400028267143C918496A4E1CF6D170BD002EB9
:10D55000FCD08A4204D128204443E018406AE860A5
:10D5600028204143C818282481686243406AD218A1
:10D570005062421CEAD028225043C01882685118D9
:10D58000816070BD5C240020F7B53A4C82B06088A1
:10D590000F4681426CD80020694608703749364EE4
:10D5A0004868C005C00D16D0103807D50207120F05
:10D5B000083A920892005118C96904E08108304A7B
:10D5C0008900891809688007C00EC1400806850FC8
:10D5D000012D01D10AE0042568462BDF02280BD07B
:10D5E000002803D027A25921FFF76EFA6078A1889E
:10D5F000884203D2401C02E072B6F7E7002022788E
:10D60000C0B2904207D066786078884201DA401C48
:10D6100000E000206070012D0BD062B668460078F3
:10D620002CDF022805D0002803D016A26121FFF7C5
:10D630004BFA1148864219D0A068F500049941516F
:10D64000029900290CD0002F0AD060883A46464340
:10D65000E068301801F0F2FBA0682818878002E02B
:10D66000002128188180002005B0F0BD0420FBE7D0
:10D670000920F9E77C240020FFFF000000ED00E016
:10D6800000E400E02E2E5C2E2E5C2E2E5C2E2E5CF6
:10D690002E2E5C536F757263655C6170705F636F93
:10D6A0006D6D6F6E5C6170705F7363686564756CDF
:10D6B00065722E6300000000F8B5254800690090EF
:10D6C00024490020C863032504462D0437E01421B3
:10D6D000426861438B1801228068A24002422CD02C
:10D6E000D868C243009842401868024000200126D2
:10D6F0008640114631420FD0DF683946314223D08F
:10D700002946B743DF60144E8700BE193768AF4320
:10D71000376037680F433760401C2028E7D30098F4
:10D720009968164686433140009E5868164030403E
:10D7300002460A4301D01A699047641CE4B20748C4
:10D7400041788C42C3D3F8BD012149043743D9E75E
:10D750000005005040610040000700508C2400206C
:10D76000F0B5574A00215368142250430124554D07
:10D7700003273F041E5822468A40164206D08A00DC
:10D7800052191668BE43166016681660491C202997
:10D79000F0D3F0BDF8B54A4F84467D68002D07D020
:10D7A000002B07D078783C78A04205D30420F8BD40
:10D7B0000820F8BD0720F8BD0E4614241643444344
:10D7C0002E5164192361A260616061460870411C9A
:10D7D0007970FFF7C5FF0020F8BDF0B5384A5168F1
:10D7E000002904D05378984203D30720F0BD0820C5
:10D7F000F0BD354B0025DD63344B1C699768002F65
:10D8000002D1334EDB057360012686403E439660AD
:10D81000142250434218D560002201230D58934032
:10D820001D4216D025461D4202D003252D0405E0D9
:10D8300001256D044618F7681F43F760214B9600D9
:10D84000F3181E6803273F04BE431E601E682E4364
:10D850001E60521C202AE0D30020F0BD70B5184C89
:10D8600005466068002804D06078854203D307200D
:10D8700070BD082070BD2846FFF772FF0121A06827
:10D88000A9408843A06003D101201149C0078860E6
:10D89000002070BD0A4B5A68002A04D05B78984279
:10D8A00003D307207047082070471423584380187B
:10D8B000064A12690068024000200A6070470000B2
:10D8C0008C240020000700504061004000050050FB
:10D8D0000063004010B50446002A02D010880022E0
:10D8E00010E00A48FBE7030A00020343A05C58402B
:10D8F00003061B0F43401803584083B21806C00CA0
:10D900005840521C8A42EED310BD0000FFFF0000B9
:10D9100010B508461146FFF7DEF810BDF8B51E4CED
:10D920002078002837D02069002807D00026E0683A
:10D93000002805D00025002E04D013E00126F6E7CC
:10D940000125F8E768464EDF052806D0002806D0F6
:10D9500012A26921FFF7B8F804E0012602E021696C
:10D9600000988847002D12D1608869460880A06819
:10D9700060DF052806D0002806D008A28021FFF726
:10D98000A3F804E0012502E0E168A0688847002EC2
:10D99000D8D0002DCFD0F8BD982400202E2E5C2E9C
:10D9A0002E5C2E2E5C2E2E5C2E2E5C536F757263B9
:10D9B000655C73645F636F6D6D6F6E5C736F6674CF
:10D9C0006465766963655F68616E646C65722E6319
:10D9D0000000000010B508484068002808D08047C3
:10D9E000002804D0FF2105A23331FFF76DF810BDE8
:10D9F000FFF794FF10BD0000982400202E2E5C2E0F
:10DA00002E5C2E2E5C2E2E5C2E2E5C536F75726358
:10DA1000655C73645F636F6D6D6F6E5C736F66746E
:10DA20006465766963655F68616E646C65722E63B8
:10DA30000000000018225043D14A002180180171D3
:10DA400081604161012281610261C160704770B5EE
:10DA5000CB4E18223078CB4C50438219121D1378CC
:10DA60000F211069E568042B02D0022B0DD024E0B1
:10DA700001210907096989B201F032FA401950DF22
:10DA800001001AD1E068401C14E0516993685268A3
:10DA900040194919521B01251818AD02AA4202D299
:10DAA000920851DF02E0FF22013251DF010004D170
:10DAB000E0684019E0600120B070084670BDF8B51C
:10DAC000AF4C0546A778264604207678002F01D172
:10DAD000002E17D00A2E28D020788019C0B20A282C
:10DAE00001D30A38C0B2182670430019057182614B
:10DAF00006C98360426101610699C1606078401C7B
:10DB0000607011E0002020702571A26103C9A3603C
:10DB1000616120610698E06001206070FFF797FF67
:10DB2000002801D0112800D10020F8BD38B50246E8
:10DB30009348182301785943081803690179022B87
:10DB40000CD0142463438E4CF434E458042909D0D7
:10DB50008368009383691030A04738BD894B103328
:10DB60001C68F3E70023F4E710B5854902468B787B
:10DB70000020012B1CD100238B70022A03D0032A22
:10DB800016D10D2012E00A7818235A435118091DA6
:10DB90000A78042A04D17B4A4968D268914201D8A4
:10DBA000FFF7C4FF00F0C9F8002801D0FFF7BEFF5F
:10DBB00010BDF8B5054673481F46007814460E465A
:10DBC000002807D0002E07D0002D05D02868002897
:10DBD00018D103E00820F8BD0E20F8BD6848F430E5
:10DBE000016800290ED0C268816840684A43101855
:10DBF0006A68904206D9002C04D0A14202D3E019F1
:10DC0000884201D90720F8BD304600F090F800287E
:10DC10000CD0F01900F08BF8002807D023463246CC
:10DC2000294602200097FFF74AFFF8BD1020F8BDF3
:10DC300038B554490978002905D0002805D0016875
:10DC4000002912D103E0082038BD0E2038BD4C4A0F
:10DC50000021F4321368002B07D09468D368634323
:10DC600054681B194468A34201D8072038BD1369C2
:10DC70000091014600220420FFF721FF38BDF8B5CE
:10DC8000054640481E46007817460C46002807D037
:10DC9000002C07D0002D05D0286802281BD103E0F6
:10DCA0000820F8BD0E20F8BD364810300068002866
:10DCB00011D0084600F03BF800280ED0A01900F063
:10DCC00036F8002809D03B46224629460220009615
:10DCD000FFF7F5FEF8BD0720F8BD1020F8BD38B5F8
:10DCE000044628480A460078002805D0002C05D0B4
:10DCF0002068022819D103E0082038BD0E2038BD65
:10DD000020481030006800280FD00120000700696B
:10DD100081B2501E01F0E4F80021431C0A46009134
:10DD200021460420FFF7CBFE38BD072038BD800711
:10DD300001D0002070470120704770B5104D1821A8
:10DD40002878104C414349198968E268914209D802
:10DD5000FFF770FE0020E0606878401E6870287849
:10DD6000401C287068780024002807D0FFF76FFE59
:10DD7000040003D0112C01D0FFF7D8FE204670BD5F
:10DD8000B02A0020AC2400200C225043554A002128
:10DD90001150801881604160704710B5042819D275
:10DDA0000C21504A41438B1851589C6800290FD0D0
:10DDB000114620310A7C521E0A74FFF7E5FF201F2E
:10DDC00000F03EFA002803D047A27721FEF77CFE40
:10DDD000002010BD072010BDF8B5424D2E4620365C
:10DDE0002BE0002421460C20414348190268002AF8
:10DDF00020D06958012914D0022907D0032902D064
:10DE000004290ED11DE0FEF7DEFE0AE087683846E1
:10DE100001F055F8F9780002000A09060843FEF7F8
:10DE2000AFFEE0B2FFF7B9FF002803D02EA2F62123
:10DE3000FEF74AFE641C042CD4D3307C0028D0D1D9
:10DE4000F8BDFEF7EAFEFEF708FFF8BD3EB501A9F2
:10DE5000684600F0DAF9002813D1009802AC037884
:10DE6000002B0ED01F492031087C032809D01D4A01
:10DE700000200C2545435559002D0DD0401C042889
:10DE8000F7D3009800F0DCF9002804D0FF2116A297
:10DE90001731FEF719FE3EBD20700C24604313506D
:10DEA000087C401C0874019881086846007A491E65
:10DEB0006043801841600099124A091D8160002169
:10DEC0000846FFF761FB0028DBD13EBD10B50024FA
:10DED000E0B2FFF762FF641C042CF9D300F071F983
:10DEE00010BD0000B82B00202E2E5C6466755F7498
:10DEF00072616E73706F72745F73657269616C2E9C
:10DF000063000000D9DD030010B5D648D54C007E73
:10DF1000641CC000207000206070A070204600F0DB
:10DF200094F9E0700421204600F069FA10BDF3B5C1
:10DF300081B04B26029FF600CA4C0546042F69D9D2
:10DF40002878410666D5010664D569780A07120F5C
:10DF50000E2A5FD14118AA78E87810180818000630
:10DF6000000E57D10022B91E2846FFF7B3FCE9196D
:10DF70001039CA7B8B7B1102194388424AD1287819
:10DF800001274107A069490FC2B28A4234D1401C1F
:10DF90004007400FA061FFF7B7FF2770029800F01D
:10DFA000C4FA002804D0FF21AFA20431FEF78CFD93
:10DFB000AC493046143100F05BFA00280BD004283D
:10DFC00005D0FF21A8A207310020FEF77DFDA5485E
:10DFD0000521343001E03146606900F02BFA002859
:10DFE00004D0FF21A0A20F31FEF76EFD21690029A8
:10DFF00001D000208847FEBD3146606900F01AFA62
:10E00000002804D0FF2198A21D31FEF75DFDFFF727
:10E010007BFFFEBD3146606900F00CFA0028F8D0A5
:10E02000FF2191A22931FEF74FFDFEBD70B58D4C49
:10E030002146A5688B6A002D12D00A46516A126AE1
:10E04000012D1FD0022D1CD100282AD0022837D044
:10E05000032816D1207F401C4007400FE0613BE0C1
:10E0600000280ED11846FFF71BF9002804D0FF2125
:10E070007DA27B31FEF728FDE168002901D0206BED
:10E08000884770BD0128FCD1891D104600F0B7F902
:10E09000002804D0FF2174A28C31FEF715FD022068
:10E0A0001BE000200246E0627C491846FFF7BBF8FF
:10E0B0000028E6D0FF216CA2A031FEF705FD70BD5F
:10E0C000E06A052806D0401CE062891D104600F079
:10E0D00096F970BD01202063002000F0BFF870BDEC
:10E0E00070B500280CD0012806D0022857D003288C
:10E0F0005DA25FD06A495FE00120FFF797FF70BD26
:10E10000584C042A20D34B781807000F06D00E284D
:10E110001AD108461146FFF70AFF70BD0878C218E9
:10E120008B78C97859185118C9B2002200290BD12F
:10E130008006410F207F401C4007400F884203D1DA
:10E1400003202263FFF772FF4B256069ED00002872
:10E1500008D0294600F06EF90028DED0FF2142A247
:10E16000FE3129E03F492846143100F081F90028AA
:10E170000BD0042805D04A493BA216390020FEF7EF
:10E18000A3FC38480521343001E02946606900F0DD
:10E1900051F90028C1D0424933A210390CE031486E
:10E1A0000521343000F046F90028B6D03C492EA2B3
:10E1B000083901E03A49091FFEF786FC70BD0220CC
:10E1C00034E710B5274C0020E060206100F04EF9E4
:10E1D000002804D09F2124A28900FEF775FC00F0DE
:10E1E00006F9002804D02E491FA26531FEF76CFC09
:10E1F000A06AFFF755F8042805D129491AA2693108
:10E200000020FEF761FC002010BD70B50C46050033
:10E2100014D0002C12D01348017800290CD0002112
:10E2200001702146284600F08DF92168891F216080
:10E230002968091D296070BD042070BD0E2070BDC5
:10E2400010B5001F00F03DF910BD017842788078CC
:10E2500051184018C043401CC0B270470149886043
:10E260000020E3E6C42400202E2E5C2E2E5C2E2EF1
:10E270005C2E2E5C2E2E5C536F757263655C617034
:10E28000705F636F6D6D6F6E5C6863695F74726100
:10E290006E73706F72742E6300000000DF4F000019
:10E2A0001902000010B5684CE1696069405C00F03B
:10E2B00023FA002802D1E169491CE16110BD10B5C3
:10E2C000C02000F019FA002805D15F49CA69002A68
:10E2D00001D15E4ACA6010BD10B55B4CE16960694E
:10E2E000405CC02803D0DB2803D0042010BDDC2014
:10E2F00000E0DD2000F000FA0028F7D1E169491CB8
:10E30000E1615249E16010BD10B5DB2000F0F4F985
:10E31000002802D14C4A4E49D16010BD70B54B4D1A
:10E320004C4E494C10E0E1696069415CC02903D062
:10E33000E169405CDB2803D1E068A84200D1E660D7
:10E34000E0688047042813D0E069A1698842EAD3D5
:10E350004148E060FFF7B3FF002809D10120606069
:10E360002369002B04D03D48E26900686169984741
:10E3700070BD30B4344B9A6A002A09D01C69002C55
:10E3800006D00020196A98621862A44630BC604723
:10E3900030BC7047C02808D02B49DB2806D00B6A58
:10E3A0008A6A9854521C8A627047E2E72C48886057
:10E3B000704710B5244CC02808D021468A6A0B6AE1
:10E3C000511CDC2805D0DD2806D104E0FFF7D1FF81
:10E3D00004E0C02000E0DB209854A1622148A06046
:10E3E00010BDC02802D118491E488860704710B57A
:10E3F000154800214160008800F0B0FA10BD10B54A
:10E40000002807D0104A5368012B05D0022B0FD0EB
:10E41000082010BD102010BD0023D3619161506110
:10E42000022050600C48D060FFF778FF002010BD3C
:10E43000042010BD044A51621062002090620A4814
:10E44000906000207047000000250020A5E2030036
:10E45000D9E2030009E30300BFE203004CF203002A
:10E46000B3E3030095E30300E3E3030000207047F8
:10E4700010B500291FD000220A60444A5368002BBF
:10E480001DD04B24E400A04217D85B1E5360D06817
:10E490009723401CD06010699B0014684343E31825
:10E4A0000B6001210C4693698440234381439361AF
:10E4B0000020116110BD0E2010BD0C2010BD0420E5
:10E4C00010BDF0B5314B8446996800292BD05A69AC
:10E4D0001020511AC907C90F96461D680A46012720
:10E4E0009726B6004E43AE19664506D13D469C6957
:10E4F0008D406C4000209C6104E00E463946B143DB
:10E500008E45EDD13D469C698D43394691400C4284
:10E510000AD19968002907D0491E996059682A468E
:10E52000491C5960F1E70420F0BD184A0121136924
:10E530001268994397239B0059431B1FC9185050D9
:10E540000020704770B500281CD000291AD00F4A4F
:10E55000D368002B18D05B1ED360936897265B1C92
:10E5600093605369B6001D4614687343E61806604D
:10E570004B20C0001818205808600120A8435061A3
:10E58000002070BD0E2070BD042070BDC43000207E
:10E59000002906D0002A02D0531E134203D00920BE
:10E5A00070470E2070470160838000218160C16048
:10E5B00008467047C2688368D31A8288934208D895
:10E5C000C36813400268D154C168491CC16000206F
:10E5D000704704207047C26883689A420AD08268F4
:10E5E00083881A4003689A5C0A708168491C8160BC
:10E5F00000207047052070471CB5E8490120C8601D
:10E60000E749886003200090C969684688471CBDB7
:10E6100038B5E34CA068022802D0E04901208860A8
:10E620006946E048FFF7D7FF002802D0FFF7E4FF74
:10E6300038BDDD48802181606A46DC4B1278DA61A2
:10E640000222A260416038BD10B5D64AD449030009
:10E6500000F0E0FD05040B31202712008868012836
:10E660001FD0022808D1032005E08868002804D0C4
:10E67000032801D10220886010BDCC4B0420186013
:10E68000C64B01201860D36892689342F3D0FFF71D
:10E69000BFFF10BD8868012806D0022804D00328D7
:10E6A000F7D100F071F910BDD06891688842EED1C1
:10E6B000FFF7A2FF10BD88680128E8D010BDF8B5AB
:10E6C0000546B74E0C460846B1692840084208D0B6
:10E6D0006946B078FFF7DEF800280CD100980540B5
:10E6E0008443B069044201D0012002E0054202D017
:10E6F0000020FFF7A9FFF8BD10B50146A948FFF7B4
:10E7000059FF04460220FFF79FFF204610BD10B5B9
:10E7100041780278090211438278C07812040A43D2
:10E7200000061043FEF7C2FB10BDA049C0B2C8618D
:10E730009A4901208860704710B501684B2927D09D
:10E740000EDC452922D006DC002923D0422919D02D
:10E75000432911D118E0462912D04A290CD10DE0E5
:10E7600091291FD004DC4C2918D0822904D113E050
:10E7700092291DD093291ED0FF2010E04A200EE0E0
:10E7800046200CE042200AE0432008E0452006E055
:10E79000892004E0EE2002E0822000E04C20FFF718
:10E7A000C4FF10BD827991210830FFF7B0FF10BD82
:10E7B000007A922101E0007A9321FEF717FB10BD49
:10E7C000FFB581B00446764D00200A9E0F46A86032
:10E7D000EA61002957D0B888396882B27148103888
:10E7E000FFF7D6FE00284FD1B889B96882B26D48CC
:10E7F000FFF7CEFE002847D16078012182006C48E7
:10E8000012181160237800229B00181802606748D4
:10E810006378C36023784361E3684362634B277A7C
:10E820004033002F02D00E27DF6200E0DA62676813
:10E83000022F05D0012F4FD03488002C60D063E028
:10E84000A278012197005A4ABA181160A2780F469F
:10E850009740584A57608A1E0261A2788260D86A3F
:10E860000843D862E0780A468240AA618300032206
:10E870004F48120418180260E07881403088002860
:10E8800004D0FF280FD2072005B0F0BD44484A4B02
:10E890000A46801CFEF77EFF0028F5D1A87800020A
:10E8A000FF30308001E0000AA8706946A878FEF7C2
:10E8B000F1FF0028E8D1A878FEF78FFF0028E3D108
:10E8C000E178012088400099084203D00020FFF73A
:10E8D000BBFE2AE00120FAE73788002F03D12F780A
:10E8E00037807F1C2F7004260660344EB260F261C0
:10E8F000DA6A0A43DA62E2780261A278826010E0A2
:10E900002C783480641C2C70042404602B4CA2608E
:10E91000E261DA6A52085200DA620022D24382606F
:10E9200002611E4881600160A96000211E48C94340
:10E930008160A12189004160214904200860214BA8
:10E9400004991A68FF2424048907090EA2430904C4
:10E950000A431A601C490860002095E710B5FF289B
:10E9600004D20420FFF770FE002010BD0C4C000AFA
:10E97000A178884201D0072010BD0420FFF764FE73
:10E98000A078FEF76BFF10BD0549002088600349A1
:10E990000122CA604A6005490860704700200040B3
:10E9A0002C250020F03000200023004000250040EE
:10E9B0000007005000050050BFE6030000210040A2
:10E9C00080E200E000E400E000E100E070B52C4CE3
:10E9D0002C4D617800293FD06A185071E278504080
:10E9E000E070024601293FD0022941D02F2903D2ED
:10E9F0006069C01C81423FD3002A23D022A0E16875
:10EA000000F0E8F8697928A000F0E4F8A9792CA0D2
:10EA100000F0E0F8E97930A000F0DCF8297A34A0C1
:10EA200000F0D8F8697A38A000F0D4F8A97A3CA0B0
:10EA300000F0D0F8E97A40A000F0CCF8297B44A09F
:10EA400000F0C8F86078401E287121690D48884799
:10EA500000206070606170BDA428FCD16871012045
:10EA60006070A420E07070BD064880796061BFE7E7
:10EA70000448C0792860BBE7491C617070BD000084
:10EA80002C250020003100206164647265737320BE
:10EA90002530387820637263206572726F7220258A
:10EAA0003032780D0A0000006D5F6576742E646167
:10EAB00074615B305D20253032780D0A0000000063
:10EAC0006D5F6576742E646174615B315D20253005
:10EAD00032780D0A000000006D5F6576742E646167
:10EAE00074615B325D20253032780D0A0000000031
:10EAF0006D5F6576742E646174615B335D202530D3
:10EB000032780D0A000000006D5F6576742E646136
:10EB100074615B345D20253032780D0A00000000FE
:10EB20006D5F6576742E646174615B355D202530A0
:10EB300032780D0A000000006D5F6576742E646106
:10EB400074615B365D20253032780D0A00000000CC
:10EB50006D5F6576742E646174615B375D2025306E
:10EB600032780D0A000000007CB5164CA068164EE5
:10EB7000002500280FD0A56014488069C0B2B0807D
:10EB8000FFF724FF31791248FFF714FD002802D166
:10EB90000F48C1688068E069002803D0E561032060
:10EBA000FFF752FD606A00280AD065620749803984
:10EBB00008680860022100910190F1696846884761
:10EBC0007CBD0000002100402C25002000250040D5
:10EBD000E03000200FB4054910B503AA029800F0F8
:10EBE00087FA10BC08BC04B018470000402400207D
:10EBF00070B5044685690068C10601D5302600E07D
:10EC00002026C00707D070BD62683046A1689047D3
:10EC1000206A401C20626D1EF6D570BD70B504469A
:10EC200085690078C00707D170BD6268A16820209F
:10EC30009047206A401C20626D1EF6D570BD000012
:10EC4000F7B5002575291068009914A611D0C046A3
:10EC5000C046002802DA404211A608E0009909687F
:10EC60008A0701D50FA602E0490704D50EA60125A3
:10EC700001E0C046C046009F0024243704E000F0B5
:10EC80004BFA30313955641C0028F8D12B463246F6
:10EC90002146009800F0D4F9FEBD000000000000FD
:10ECA0002D0000002B0000002000000070B504467D
:10ECB0000D4621461068C046C0462188090502D588
:10ECC0000F4A7A4402E00E4A7A440E32234600216B
:10ECD000243305E00607360F965D5E54491C000993
:10ECE0000028F7D120780023000705D5702D03D028
:10ECF000002901D011320223204600F0A1F970BD95
:10ED0000AE050000F3B50446002081B02062204625
:10ED1000E168884700287DD0252802D06268A16874
:10ED200083E0454F00257F442046E168884720283E
:10ED3000064608DB312E06D2B819203800780028A4
:10ED400001D00543F0E7A80701D504208543002042
:10ED5000E0610746A0612A2E0AD0304600F067FA2B
:10ED6000002827D0303EB80000190090866119E0D5
:10ED70000298BA00121902C8916102902046E16817
:10ED80008847012F064617D1E06900281FDA2020A6
:10ED900085431CE000980A21806948430099801946
:10EDA000303888612046E1688847064600F03FFA1F
:10EDB0000028EFD1012F0AD02E2E08D12046E1687D
:10EDC00088470646202005437F1C022FC3DBA0692D
:10EDD000002803DA4042A06101200543E80701D082
:10EDE00010208543002E24D030464138192803D8FE
:10EDF0000120C00205432036204625603146029A94
:10EE00001546FDF78DFD00280CD0012807D0ED1D1B
:10EE1000E80800E00DE0C0000830029077E72D1D03
:10EE2000029574E762683046A1689047206A401CEA
:10EE30006CE7206AFEBD000072050000F8B5042AE8
:10EE40002CD3830712D00B78491C0370401C521E30
:10EE500083070BD00B78491C0370401C521E83079C
:10EE600004D00B78491C0370401C521E8B079B0F6B
:10EE700005D0C91ADF002023DE1B08C90AE0FDF710
:10EE800097FDF8BD1D4608C9FD401C46B4402C4303
:10EE900010C0121F042AF5D2F308C91A521EF0D46A
:10EEA0000B78491C0370401C521EEAD40B78491C95
:10EEB0000370401C521EE4D409780170F8BD037839
:10EEC000C2781946437812061B0219438378C0782A
:10EED0001B04194311430902090A0006084370473D
:10EEE000002203098B422CD3030A8B4211D3002347
:10EEF0009C464EE003460B433CD4002243088B4221
:10EF000031D303098B421CD3030A8B4201D39446AD
:10EF10003FE0C3098B4201D3CB01C01A52418309A0
:10EF20008B4201D38B01C01A524143098B4201D35A
:10EF30004B01C01A524103098B4201D30B01C01A85
:10EF40005241C3088B4201D3CB00C01A52418308FF
:10EF50008B4201D38B00C01A524143088B4201D32C
:10EF60004B00C01A5241411A00D20146524110468C
:10EF700070475DE0CA0F00D04942031000D3404201
:10EF8000534000229C4603098B422DD3030A8B4237
:10EF900012D3FC22890112BA030A8B420CD38901D5
:10EFA00092118B4208D3890192118B4204D38901BB
:10EFB0003AD0921100E08909C3098B4201D3CB01F9
:10EFC000C01A524183098B4201D38B01C01A5241AE
:10EFD00043098B4201D34B01C01A524103098B42B2
:10EFE00001D30B01C01A5241C3088B4201D3CB009D
:10EFF000C01A524183088B4201D38B00C01A524180
:10F00000D9D243088B4201D34B00C01A5241411A56
:10F0100000D20146634652415B10104601D3404284
:10F02000002B00D54942704763465B1000D3404235
:10F0300001B50020C046C04602BD7047704770470A
:10F04000FFB504460D4681B0243000902168880643
:10F0500004D51022E0699143216000E00120A8421C
:10F0600001DD471B00E000270498A1697A191018F8
:10F07000081AA0612078C00602D42046FFF7B8FD28
:10F08000002608E003986268A168805D9047206AC6
:10F09000401C761C206204988642F3DB2078C00670
:10F0A0000AD52046FFF7A4FD06E06268A16830207B
:10F0B0009047206A401C206238467F1E0028F4DCFE
:10F0C00007E000986268A168405D9047206A401C94
:10F0D000206228466D1E0028F3DC2046FFF79EFDC7
:10F0E0002078000602D5022005B0F0BD0120FBE724
:10F0F000084B70B50D467B4400F027F804462846BF
:10F1000000F036F8002802D00020C04370BD204631
:10F1100070BD0000D3DCFFFF01468008081A020919
:10F120001018020A1018020C1018C00882001218D9
:10F130005200891A01E00A39401C0A29FBD27047A3
:10F1400001694A1C02610878704700B58FB00291CE
:10F1500000210591054901937944039111460490DA
:10F160006846FFF7CFFD0FB000BD0000E5FFFFFFD1
:10F17000C068802108407047754600F023F8AE460D
:10F18000050069465346C008C000854618B020B542
:10F19000FDF786FC60BC00274908B6460026C0C5BE
:10F1A000C0C5C0C5C0C5C0C5C0C5C0C5C0C5403D3F
:10F1B00049008D4670470446C046C0462046FDF7CC
:10F1C000CBFB00000048704738310020014918206F
:10F1D000ABBEFEE726000200704730B58C180278FF
:10F1E000401C13071B0F01D10378401C120906D1E4
:10F1F0000278401C03E00578401C0D70491C5B1E22
:10F20000F9D101E00B70491C521EFBD1A142E6D39B
:10F21000002030BD30B47446641E2578641CAB42B7
:10F2200000D21D46635D5B00E31830BC18473038E0
:10F230000A2801D2012070470020704708070A09F8
:10F24000010000000000000000E0D7010100000004
:10F2500000000000000000000200000000000000AC
:10F260000000000010111312010000000000000057
:10F2700000509D0030313233343536373839414211
:10F280004344454640305800303132333435363708
:10F2900038396162636465664030780004000008B4
:10F2A000000000000000000200010000100000004B
:10F2B000D0F20300002400204C010000DAF103002A
:10F2C000F0F203004C2500204C18000004C9030094
:10F2D000A40024F402390702C301081EE3E303007B
:10F2E000A5E203420193FFFFE6020039E7030000B5
:020000041000EA
:0410140000C803000D
:040000050003C8C16B
:00000001FF
